:03000000020800F3
:0C080000787FE4F6D8FD758120020847DF
:0D09870002090000C100C181C10201080089
:1008DB0012096D20861F30011C2002197F147E0027
:1008EB0012094D20860FD200D202E4F509F50AC297
:1008FB0090D291D2A1A2869201300015C3E50A9441
:10090B0064E5099400400AC200C202D290C291C2AF
:0C091B00A12000BFD290C291C2A180B701
:10096D00D290C291C2A1438901758C3C758AB0D2D7
:0A097D00A9D28CD288D2A8D2AF22F2
:03000B00020927C0
:04092700C0E0C0D09C
:10092B00758C3C758AB00508E508C39402400E75BA
:0D093B000800300008050AE50A70020509F1
:05094800D0D0D0E03228
:0300030002088C64
:10088C00C0E0C0F0C083C082C0D075D000C000C032
:10089C0001C002C003C004C005C006C0077F147E9F
:1008AC000012094D20B20D30000AC200C202D290D3
:1008BC00C291C2A1D007D006D005D004D003D0027B
:0F08CC00D001D000D0D0D082D083D0F0D0E03295
:10094D00E4FDFCC3ED9FEC9E5015E4FBFA0BBB00E0
:0F095D00010AEB647B4A70F50DBD00010C80E4CC
:01096C002268
:10080C000208DBE493A3F8E493A34003F68001F21F
:10081C0008DFF48029E493A3F85407240CC8C333ED
:10082C00C4540F4420C8834004F456800146F6DFBC
:10083C00E4800B0102040810204080900987E47EBC
:10084C00019360BCA3FF543F30E509541FFEE493B1
:10085C00A360010ECF54C025E060A840B8E493A378
:10086C00FAE493A3F8E493A3C8C582C8CAC583CAA3
:10087C00F0A3C8C582C8CAC583CADFE9DEE780BE5B
:010994000062
:00000001FF
