:020000040800F2
:1000000058050020010100089D1300087311000825
:1000100011130008F5030008791B00080000000018
:100020000000000000000000000000003916000879
:10003000F703000800000000091600080D19000869
:100040001B0100081B0100081B0100081B01000820
:100050001B0100081B0100081B0100081B01000810
:100060001B0100081B0100081B0100081B01000800
:100070001B0100081B0100081B0100081B010008F0
:100080001B0100081B0100081B0100081B010008E0
:100090001B0100081B0100081B0100081B010008D0
:1000A0001B0100081B0100081B0100081B010008C0
:1000B0001B010008711900081B0100081B01000842
:1000C0001B0100081B0100081B0100081B010008A0
:1000D0001B0100081B0100081B0100081B01000890
:1000E0001B0100081B0100081B010008DFF80CD0F1
:1000F00000F06EF900480047E51C00085805002094
:100100000648804706480047FEE7FEE7FEE7FEE7B1
:10011000FEE7FEE7FEE7FEE7FEE7FEE76F190008F1
:10012000ED00000840EA01039B0703D009E008C97D
:10013000121F08C0042AFAD203E011F8013B00F8AC
:10014000013B521EF9D27047D2B201E000F8012BF8
:10015000491EFBD270470022F6E710B513460A4647
:1001600004461946FFF7F0FF204610BDF0B480EAC0
:100170000102D40F4200B2EB410F02D20246084600
:1001800011464A0042D0C30DDDB2C1F3C752AD1AC9
:10019000202D35DAC1F3160141F4000204B15242B8
:1001A000C5F1200602FA06F12A411044B3EBD05FF4
:1001B00023D0C4B1012DA0EBC35009DCF0BC4FF03B
:1001C000004202EAC352DBB200F5000000F0D2B8F0
:1001D000400000F1807000EBC350A0F1807040EA55
:1001E000D170490009E0490841EAC071A0EBC35051
:1001F00000F50000400800EBC350F0BC00F0B1B8BF
:100200006142012202EB4101001BF6E7F0BC70479E
:1002100081F00041AAE780F00040A7E780EA0102F0
:1002200010B502F00043400022D04A001FD0010E5A
:1002300001EB1261C0F35600C2F3560240F4000015
:1002400042F40002A0FB022000047F39140400D015
:10025000401C50EA124001D44000491EC2B20C06B4
:1002600004EBD010401C4008802A02D003E000209C
:1002700010BD20F00100002900DA0020184310BD55
:1002800030B480EA010202F0004530F0004221F073
:10029000004013D090B1C30DD40DC2F31601C0F3CA
:1002A0001600E41A41F4000140F400027D3491424A
:1002B00001D3641C00E04900002C02DA30BC0020AD
:1002C00070474FF400000023914201D3891A034381
:1002D00040084FEA4101F7D151B1914202D14FF0AC
:1002E000004105E002D24FF0010101E06FF0010191
:1002F00003EBC450284430BC00F033B8420005D0B2
:10030000C0F3C7525242914201DC0020704700EB1B
:10031000C1507047C10F80EAE0700844CA079623B5
:10032000002100F027B896230022114600F022B8E1
:1003300000F0004220F00040C10DC0F3160040F470
:1003400000007F2901DA00207047962903DCC1F103
:100350009601C84001E096398840002AF4D0404216
:1003600070470029A8BF7047401C490008BF20F013
:100370000100704710B4B0FA80FC00FA0CF050EAAB
:10038000010404BF10BC704749B1CCF1200421FA2C
:1003900004F411FA0CF118BF012121430843A3EB27
:1003A0000C01CB1D4FEA00614FEA102042BF002034
:1003B00010BC704700EBC35010440029A4BF10BC10
:1003C0007047401C490008BF20F0010010BC704776
:1003D000064C074D06E0E06840F0010394E8070092
:1003E00098471034AC42F6D3FFF784FEAC210008E6
:1003F000CC210008FEE7704772B6FEE72DE9F84F02
:10040000DFF8B891002409F1040A0AF1040B23462D
:100410000F270BF1040EC9E00125A5402A40AA428E
:100420007DD1674ED1F804C0ACEB0608B44532D09C
:1004300014DCBCF1030F3AD009DCBCF1000F2AD068
:10044000BCF1010F1CD0BCF1020F31D11DE0BCF199
:10045000110F17D0BCF1120F2AD119E0B8F5881F7F
:1004600019D006DCB8F5803F15D0B8F5801F1FD134
:1004700011E0B8F5001F0ED0B8F5041F18D10AE03E
:10048000CB6815E0CB681B1D12E0CB6808330FE08A
:10049000CB680C330CE08B682BB1012B4FF00803B9
:1004A00003D0456104E0042302E0056100E000237D
:1004B000FF2A01D8064601E000F104064FEA840550
:1004C00001D9A5F12005D6F8008007FA05FC28EA35
:1004D0000C0803FA05F548EA0508C6F800804D68DF
:1004E000ED0062D5374DAE6946F00106AE61AD69EB
:1004F00024F0030605F001050095334D06EB050CCD
:10050000DCF80850A607360F07FA06F825EA0805B2
:10051000DFF8B880404503D14FF0000817E044E011
:10052000DFF8AC80404502D14FF001080FE0DFF862
:10053000A480404502D14FF0020808E0DFF898801F
:10054000404502D14FF0030801E04FF0040808FADB
:1005500006F848EA0508CCF808804D68D9F800602C
:10056000ED034D4601D5164300E096432E604D68DD
:10057000DAF80060AD03554601D5164300E0964316
:100580002E604D68DBF80060ED025D4601D5164334
:1005900000E096432E604D68DEF80060AD027546BF
:1005A00001D5164300E096432E60641C0D682A4670
:1005B000E5407FF431AFBDE8F88F00000004014052
:1005C000000011100010024000000140000801402E
:1005D000000C0140001001400014014080680840F8
:1005E00000D0012070470AB1016170470904FBE7A0
:1005F00001488068704700000000002002488168C0
:10060000027811448160704700000020074810B54F
:10061000016841F010010160032000F075F800202E
:1006200000F006F800F024F8002010BD0020024081
:1006300070B50D4D04464FF47A712878B1FBF0F097
:100640000A490968B1FBF0F000F0ECFA48B9102C47
:1006500007D200222146501E00F036F800206C60C0
:1006600070BD012070BD0000000000200C000020C3
:100670000C4808B5816941F001018161816901F08F
:1006800001010091C16941F08051C161C06900F070
:10069000805000900448416821F0E06141F0007111
:1006A000416008BD0010024000000140002809DB45
:1006B00000F01F02012191404009800000F1E0207C
:1006C000C0F8001170470000F0B40E4B1B680C46D8
:1006D000C3F30223C3F10705042D00D90425191D16
:1006E000072901D2002300E0DB1E012606FA05F1EE
:1006F000491E214099409E40761E16403143F0BC71
:1007000001F03BBA0CED00E0064900F00702086872
:100710004FF6FF03184040EA0220034A10430860E6
:10072000704700000CED00E00000FA052DE9F047ED
:100730000F46050061D0434E306800F00700B84214
:1007400009D2306820F0070038433060306800F08C
:100750000700B84251D128683B4C810712D54007A9
:1007600003D5606840F4E06060602878000703D536
:10077000606840F4605060606068A96820F0F00034
:10078000084360602878C00728D06868012810D026
:100790002168022810D0890700292EDA616821F02B
:1007A000030101436160FFF723FF804641F288396E
:1007B0000DE021688903EFE78901EDE7FFF718FFF6
:1007C000A0EB0801494502D90320BDE8F087606825
:1007D000696800F00C00B0EB810FEFD1306800F0D9
:1007E0000700B8420BD9306820F00700384330606A
:1007F000306800F00700B84201D00120E5E7287812
:10080000400705D56068E96820F4E060084360604F
:100810002878000706D56068296920F4605040EA0E
:10082000C100606000F038F86168084AC1F3031144
:10083000515CC8400649086006480068FFF7F8FEAA
:100840000020C2E70020024000100240301D0008D6
:100850000C00002004000020044805490068496895
:10086000044AC1F30221515CC84070470C000020CB
:1008700000100240401D000804480549006849680E
:10088000044AC1F3C221515CC84070470C000020EB
:1008900000100240401D000812A185B00FC98DE86C
:1008A0000F0014A0144A006804905168134801F026
:1008B0000C03042B10D0082B0ED1C1F38343C903C2
:1008C0001DF803000AD5516804AAC1F34041515CE8
:1008D0000A4A5043B0FBF1F005B07047084948435D
:1008E000FAE7000002030405060708090A0B0C0DCD
:1008F0000E0F1010010200000010024000127A00DA
:1009000000093D002DE9F84F040070D02078C04D5B
:10091000C00749D06868C0F38100012807D0686823
:10092000C0F38100022809D16868C00306D5286891
:10093000800339D560680028E7D035E06068B0F5FD
:10094000803F0BD010B1B0F5A02F11D0286820F453
:1009500080302860286820F4802002E0286840F475
:1009600080302860606890B1FFF742FE06460AE0DA
:10097000286840F480202860F0E700BFFFF738FEC9
:10098000801B642873D828688003F7D50CE0FFF734
:100990002FFE064605E000BFFFF72AFE801B6428F5
:1009A000F0D828688003F7D420789A4E80074FF05B
:1009B00001094FF0000839D5686810F00C0F07D016
:1009C0006868C0F38100022809D16868C00306D4B2
:1009D0002868800714D52069012808D110E0206913
:1009E000B0B1C6F80090FFF703FE074605E00AE144
:1009F000FFF7FEFDC01B0228C4D828688007F7D582
:100A00002868616920F0F80040EAC10028600DE024
:100A1000C6F80080FFF7ECFD074604E0FFF7E8FDAD
:100A2000C01B022823D828688007F7D42078000745
:100A30002CD57948A169D9B1C0F80090FFF7D8FD4D
:100A4000074604E0FFF7D4FDC01B02280FD8686AF0
:100A50008007F7D571484FF4FA510068B0FBF1F008
:100A6000009000BF0098411E0091FAD20EE080E095
:100A7000C0F80080FFF7BCFD074604E0FFF7B8FDB3
:100A8000C01B022875D8686A8007F7D42078400711
:100A900060D5E8690027C00008D4E86940F08050BC
:100AA000E861E869012700F0805000905C48016827
:100AB000C90513D40168834641F480710160FFF7D2
:100AC00097FD824606E000BFFFF792FDA0EB0A000B
:100AD00064284ED8DBF80000C005F5D5E068012891
:100AE0000AD008B1052813D0286A20F00100286236
:100AF000286A20F0040002E0286A40F00100286221
:100B0000E06841F2883B98B1FFF772FD82460BE046
:100B1000286A40F004002862EEE700BFFFF768FD96
:100B2000A0EB0A0159455AD8286A8007F6D50CE08F
:100B3000FFF75EFD824605E0FFF75AFDA0EB0A01D4
:100B400059454CD8286A8007F6D41FB1E86920F0CF
:100B50008050E861E06988B36968C1F381010229C6
:100B600044D00228C6F8608004D0FFF741FD044657
:100B700038E034E0FFF73CFD074604E0FFF738FDBE
:100B8000C01B02282BD828688001F7D4206AB0F552
:100B9000803F05D16868A16820F400300843686090
:100BA000D4E908010843696821F4741108436860B6
:100BB000C6F86090FFF71CFD044606E025E000BF84
:100BC000FFF716FD001B022809D828688001F7D519
:100BD0001BE000BFFFF70CFD001B022802D9032019
:100BE000BDE8F88F28688001F4D40EE00128F7D022
:100BF0006868226A00F48031914204D1616A00F48D
:100C00007010884201D00120EAE70020E8E70000E8
:100C10000010024000004242800442420C000020CA
:100C20000070004010B5401EB0F1807F01D301205C
:100C300010BD4FF0E02460610F21601700F09DFFB0
:100C40000020A06107202061002010BD7047704780
:100C500070B590F83C20012A26D0012480F83C4051
:100C6000022280F83D2003685A689D6822F07006D1
:100C70000A6832435A600D4B02689A4208D0B2F1BA
:100C8000804F05D00A4B9A4202D00A4B9A4204D1B7
:100C9000496825F080031943916080F83D400021A8
:100CA00080F83C10084670BD022070BD002C014049
:100CB000000400400008004010B5040003D094F880
:100CC0003D0010B107E0012010BD002084F83C0079
:100CD000204600F01FF8022084F83D00211D206806
:100CE00000F050FE012084F8460084F83E0084F8AD
:100CF0003F0084F8400084F8410084F8420084F802
:100D0000430084F8440084F8450084F83D00002046
:100D100010BD000008B500680B49884212D10B488D
:100D2000C16941F00201C161C069002200F0020006
:100D3000009011461D20FFF7C7FCBDE808401D20AC
:100D4000FFF7B4BC08BD00000004004000100240E2
:100D500090F83D10012901D001207047022180F850
:100D60003D100168CA6842F00102CA6000680B4980
:100D7000884208D0B0F1804F05D00949884202D09E
:100D80000849884204D1816801F00701062903D08F
:100D9000016841F00101016000207047002C014012
:100DA000000400400008004070B5044690F83C0084
:100DB000012817D0012584F83C50022084F83D001A
:100DC0002068826822F0770222F47F4282600868FD
:100DD000502830D00DDC20284DD005DC98B31028E9
:100DE0003BD148E0022070BD302844D0402834D1A7
:100DF00039E0602828D0702806D0B0F5805F2CD06C
:100E0000B0F5005F29D10AE0CB68D1E90121206863
:100E100000F0EEFD2068816841F0770109E0CB68C1
:100E2000D1E90121206800F0E3FD2068816841F4E8
:100E30008041816011E0CA684968206800F0EAFDDD
:100E40005021206807E016E0CA684968206800F071
:100E5000F2FD6021206800F0D5FD84F83D500020AF
:100E600084F83C0070BDCA684968206800F0D2FD73
:100E700040212068EFE7226801461046EBE7704703
:100E800070B50446006801694FF00005C943890741
:100E900015D4C168C943890711D4E91E0161012035
:100EA0002077206880698007204602D0FFF7E7FF9F
:100EB00004E000F098F8204600F096F825772068C6
:100EC0000169C943490717D4C168C943490713D405
:100ED0006FF004010161022020772068806910F41E
:100EE000407F204602D0FFF7CAFF04E000F07BF805
:100EF000204600F079F8257720680169C943090781
:100F000016D4C168C943090712D46FF00801016102
:100F1000042020772068C0698007204602D0FFF7B0
:100F2000AEFF04E000F05FF8204600F05DF82577A2
:100F300020680169C943C90617D4C168C943C906F5
:100F400013D46FF010010161082020772068C06978
:100F500010F4407F204602D0FFF791FF04E000F03C
:100F600042F8204600F040F8257720680169C9431F
:100F7000C90708D1C168C943C90704D1891E0161E5
:100F8000204600F032F820680169C943090609D4F7
:100F9000C168C943090605D46FF08001016120468C
:100FA000FFF754FE20680169C943490609D4C168A6
:100FB000C943490605D46FF040010161204600F0A5
:100FC00015F820680169C94389060BD4C168C94373
:100FD000890607D46FF0200101612046BDE870400A
:100FE000FFF735BE70BD704770477047704770B5EA
:100FF000040004D094F83D00002510B106E0012063
:1010000070BD84F83C50204600F022F8242084F87B
:101010003D002068C16821F40051C160204600F005
:101020001DFD2068016921F490410161206841693A
:1010300021F02A0141612068C16841F40051C1607A
:101040002564202084F83D0084F83E00002070BD17
:1010500030B585B000240094019402940394006894
:101060001449884224D11448816941F48041816146
:10107000816901F480410491816941F00401816139
:1010800080690E4D00F0040004904FF40070009051
:10109000022001900320039069462846FFF7AEF92D
:1010A0002815CDE90004694628460294FFF7A6F901
:1010B00005B030BD0038014000100240000801407A
:1010C0002DE9F843044690F83D001F4616460D46AC
:1010D00020284CD1C5B1BEB194F83C00012846D0BF
:1010E000012084F83C004FF00008C4F84080212023
:1010F00084F83D00FFF77CFAA6848146E684A06868
:10110000B0F5805F03D004E00120BDE8F8832069DA
:1011100028B12E465FF0000584F83C800EE00026E2
:10112000FAE78021204600F0F5FCA0B9AEB116F830
:10113000010B21684860E08C401EE084E08C4B4647
:101140004FF0000200970028EBD14FF040012046FD
:1011500000F0E0FC30B10320D7E735F8020BC0F314
:101160000800E6E7202084F83D000020CDE70220BB
:10117000CBE7FEE770B50A4604000FD0084D0949D9
:101180001046FFF74BF82946FEF7F0FF20600648AF
:1011900060600648A0600020E060206170BD000033
:1011A0008C5226431AD7D8468C5226C3000080BFE3
:1011B0002DE9F0410F46040018D0E568256111467D
:1011C0006068FFF72BF806462946A068FFF726F867
:1011D000054639462068FFF721F82946FFF718F839
:1011E0003146FEF7C3FFE060BDE8F0810020FBE779
:1011F00070B586B000241C480094019402940394B6
:10120000816941F010018161816901F0100104914F
:10121000816941F020018161816901F0200104911F
:10122000816941F0040181618069104E00F0040081
:101230004FF400550490002229463046FFF7D3F9B9
:101240000220CDE90240009501256946019530460E
:10125000FFF7D4F8CDE90054694605480294FFF73A
:10126000CDF806B070BD0000001002400010014033
:101270000008014010B586B000241648009401947F
:1012800002940394049412490594C0E9001440F6B2
:101290000F61C0E9024104618461FFF70DFD08B1EF
:1012A000FFF7AAF84FF48050009069460948FFF70D
:1012B0007BFD08B1FFF7A0F8049404A90548059444
:1012C000FFF7C6FC002801D0FFF796F806B010BD66
:1012D00000040040200000200C4810B50A490160BD
:1012E0004FF4E1314160002181600C22C160C0E90E
:1012F00004128161C161FFF77AFE002803D0BDE8C6
:101300001040FFF779B810BD003801406800002098
:10131000FEE7000070B516460D4604000FD00849E0
:101320002846FEF77BFF2060656260600020A060B9
:10133000E060206160610348A061C4E9070670BDF8
:10134000DB0FC94077BE7F3F70B5040023D0A5688E
:10135000E56020696061A069E0612068FEF758FFE0
:101360006060216AFEF75AFF2946FEF7FFFE0A4D2C
:10137000A060A84203DD2946FEF74AFFA06000F006
:1013800025FC2061A06800F017FCA0612946606878
:10139000FEF776FF606270BDDB0FC940FEE700001C
:1013A0002DE9F0479946089D884604004BD027490F
:1013B0001046FEF733FF0121FEF7A0FF074601218B
:1013C0002846FEF79BFF3946FEF728FF4146FEF709
:1013D00025FF064601214846FEF790FF3946FEF7F5
:1013E0001DFF4146FEF71AFF054641463846FEF707
:1013F00015FF3946FEF712FF4146FEF70FFF07467D
:101400002946FEF705FF4FF07E584146FEF7AEFE37
:101410004FF08049606049462846FEF7F9FEC4F85F
:101420000880206049463046FEF7F2FEE060314613
:101430003846FEF7EDFE4146FEF798FE206100209B
:101440006061A061E061BDE8F0870000DB0FC9408A
:101450002DE9F04790460E4604002CD0A569E561C1
:101460006769A76119462069FEF7D8FE81464146A3
:10147000E068FEF7D3FE80463146A068FEF7CEFE58
:10148000064629466068FEF7C9FE054620683946CB
:1014900080F00040FEF7C2FE2946FEF7B9FE314655
:1014A000FEF764FE4146FEF761FE4946FEF75EFE2A
:1014B0006061BDE8F0870020FBE7000010B5FFF792
:1014C00097F8044601210648FFF788F8002805D15F
:1014D00004484168611AC82900D9446010BD000061
:1014E00000080140100000200C4810B50168491C9C
:1014F00001600068C00702D1094800F091F908486E
:1015000090F89C2007484FF400510AB1002200E0F7
:101510000122BDE81040FFF766B80000100000206F
:10152000AC0000200010014010B5064800F03EF964
:10153000BDE810404FF4FA734B2203490348FFF70C
:10154000BFBD0000AC000020602100086800002042
:1015500030B52A49A1B08868401C88604FF4FA6110
:10156000B0FBF1F201FB120020B100BFFFF7A6FFB4
:1015700021B030BD224C684654F8801F062200F08E
:101580005DFB2C2500F8015B6168062200F056FB2C
:1015900000F8015BA168062200F050FB00F8015B37
:1015A000E168042200F04AFB00F8015B2169022295
:1015B00000F044FB00F8015B6169042200F03EFB8F
:1015C00000F8015BA169032200F038FB00F8015B21
:1015D000217F4FF4FA7301F00101303100F8011B53
:1015E0000D2100F8021B0A2100F8011C6946401A6F
:1015F00082B20448FFF764FDB8E700001000002045
:10160000AC000020680000207047002803D00021B3
:10161000016041608160704710B50B46040009D03D
:101620006068A0602068606011461846FEF7F6FD0D
:10163000206010BD002010BD7047000000280ED0B3
:10164000074A0021C0E900124FF07E52C0E9022192
:10165000016101750121417502492A200860704726
:10166000000048421C000020002802D00175012122
:10167000417570472DE9F04F85B004000FD0227DF1
:1016800041484FF07E5540F6B831012A0BD0022A6E
:1016900016D0032A26D0042A2BD080460EE0002044
:1016A00005B0BDE8F08F80462069884206D1607D94
:1016B00020B936492068FEF759FD2060002642E037
:1016C00020694FF47A61B0FBF1F614223049684684
:1016D000FEF728FD0520B6FBF0F100FB11605DF878
:1016E0002000DAE7804620698842E7D34FF07C5536
:1016F000E4E7DFF8A0A04FF000098046DAF80060C8
:101700004F4643F2390B244806FB00B6C6F30B40A4
:10171000FEF709FE6FF00B01FEF7F0FD4946FEF7FC
:1017200025FD7F1C8146042FEDD34FF080414846B4
:10173000CAF80060FEF76CFD1849FEF76FFD184906
:10174000FEF76CFD0646174F40463946FEF766FD2C
:101750001549FEF763FD2168FEF708FD2060B842D9
:1017600003DD3946FEF754FD206000F02FFA2946CC
:10177000FEF754FD3146FEF7F9FCE0602169491C93
:101780002161002161758BE700004842DB0FC93FF2
:10179000481D00081C0000206D4EC6412DB2DD3FE3
:1017A00029CB903DDB0FC94017B7D138F8B50400FD
:1017B0002DD0FFF743FF00212046FFF755FF04F12E
:1017C0001800FFF722FF1248134D144E0090114BE2
:1017D0002A46314604F12400FFF7E2FD314604F1C8
:1017E0004400FFF7C7FC3246294604F15800FFF7D2
:1017F00091FD002044F8800F6060A060C4E90305FB
:101800006061A0612077206284F82400A062F8BDA6
:10181000ACC52737CDCCCC3D0000484217B7D138F6
:101820002DE9F047040066D0FFF724FF804601460B
:1018300004F11800626FFFF7EFFE04F1180104F1E4
:1018400024000EC9FFF704FE014604F14400E26BD8
:10185000FFF7AEFC0546014604F15800FFF774FDA2
:10186000A16DE06D89460646FEF7D2FC234FB842D3
:1018700003D331464846FEF7CBFC2149FEF700FD75
:10188000BD4202D385F0004100E029464FF4C87202
:10189000B0F1804F08DA1B48814205DAD4F8A00085
:1018A000904209D2401C03E0D4F8A00030B1801E61
:1018B000C4F8A000904201D3012700E0002784F87B
:1018C000A470D4F8A86060343046FEF72CFD0E49B1
:1018D000FEF7A4FCC4E90808A168A1622068E062E0
:1018E000E06920634046FEF793FCC4E90D0584F8E7
:1018F0003C70761CA664BDE8F08700000000808084
:10190000DB0FC9400000204117B7D138FEF776BE83
:1019100030B58FB028216846FEF71DFC14210AA8B7
:10192000FEF719FC01210804CDE9001000240294FF
:1019300002250491CDE907504FF4E0100990684664
:10194000FEF7E0FF08B172B6FEE70F20CDE90A0509
:101950004FF48060CDE90C4002210AA80E94FEF7F6
:10196000E5FE002801D072B6FEE70FB030BD70472B
:1019700010B50348FFF784FABDE81040FFF7B4BD87
:1019800020000020F0B50268164B174C174D4FF0A1
:101990008047984205D0B84203D0A04201D0A84267
:1019A00003D122F070064A683243984205D0B8420B
:1019B00003D0A04201D0A84203D122F44074CA68E7
:1019C00022434C6922F08002224302608A68C2628C
:1019D0000A688262984201D109690163012141616B
:1019E000F0BD0000002C0140000400400008004051
:1019F00010B5846842EA032224F47F440A43224358
:101A0000826010BD826822F070020A4342F0070132
:101A10008160704710B5036A046A24F0010404620F
:101A2000846924F0F00444EA021423F00A020A4311
:101A30008461026210BD10B5036A23F010030362D3
:101A40008369046A23F4704343EA023224F0A0035A
:101A500043EA01118261016210BD000070B50446C5
:101A600000680169E26821F4405111430161216974
:101A7000A0680843616908432168CA6841F20C63A1
:101A80009A430243CA6020684169A26921F4407107
:101A9000114341611E492068884202D1FEF7ECFEE5
:101AA00001E0FEF7D9FE00EBC00101EB0012606817
:101AB00064218000B2FBF0F3B3FBF1F36FF0180682
:101AC0007343B2FBF0F5B2FBF0F605EB830532236E
:101AD00003EB0515B5FBF1F5B6FBF1F605F0F005E6
:101AE00005EB0615B2FBF0F6B2FBF0F0B0FBF1F03F
:101AF0006FF01802504306EB800003EB0010B0FBC0
:101B0000F1F0216800F00F002844886070BD0000EB
:101B1000003801402DE9F041984617460E4604462C
:101B2000069D1DE0681C1BD02DB1FEF761FDA0EBEA
:101B30000800A84214D92068C16821F4D071C1609E
:101B40002068416921F001014161202084F83D00B5
:101B500084F83E00002084F83C000320BDE8F081BA
:101B60002068006836EA000004D00020B842D9D0CE
:101B70000020F3E70120F9E7FEE70907090E002836
:101B800004DB00F1E02080F80014704700F00F0043
:101B900000F1E02080F8141D704702E008C8121F11
:101BA00008C1002AFAD170477047002001E001C146
:101BB000121F002AFBD1704710B50349FEF7D6FA71
:101BC000BDE8104000F002B8DB0FC93F70B5174DFB
:101BD000174CA84206D32146FEF7C8FAF9E700BF22
:101BE000FEF716FB21468842FADA0821FEF786FB4B
:101BF0001049FEF713FB0546FEF79AFB0446FEF775
:101C000089FB2946FEF707FB0B49054601EB8400DB
:101C100051F8246040683146FEF7FAFA2946FEF78B
:101C2000FDFA3146BDE87040FEF7A0BA00008080A2
:101C3000DB0FC94083F9223E5C1D00082DE9FF41FE
:101C4000164604460F4611F1FF4F04D32D2004F829
:101C5000010B81F000473846FEF76AFB0546FEF7A8
:101C600059FB3946FEF7D7FA02461DB100206946F6
:101C70000A230CE0302004F8010B11E095FBF3F788
:101C800003FB175795FBF3F530370F54401C002D1D
:101C9000F4DC03E0401E0B5C04F8013B0028F9DC97
:101CA000002E19DD2E2004F8010B0D4F10E03946EF
:101CB0001046FEF7B3FA0546FEF73AFB00F1300195
:101CC00004F8011BFEF726FB2946FEF7A4FA02469C
:101CD000301EA6F10106EADC04B02046BDE8F08122
:101CE00000002041FEF792FCFFF712FEFFF780FA9A
:101CF000FFF7C0FAFFF7F0FAFFF716FC4FF4FA739C
:101D00000C2205A10848FFF7DBF90848FFF720F887
:101D1000FFF71EFCFCE7000041465445525F494E68
:101D200049540D0A00000000680000202000002037
:101D3000000000000000000001020304060708097B
:101D40000000000001020304000040420000444281
:101D50000000484200004C420000504200000000D9
:101D6000350AC93C87FB483D3FA9963D23BDC83D88
:101D70009EB2FA3D6440163EAA102F3EACC5473EC7
:101D8000035C603EC0CF783E9B8E883E3CA0943E74
:101D9000ED9AA03ED97CAC3E2844B83E07EFC33E46
:101DA000C07BCF3E7DE8DA3E6A33E63EF35AF13E31
:101DB000205DFC3E419C033FA1F5083FD6390E3F14
:101DC0002768133FBB7F183FD87F1D3F9467223F92
:101DD0005936273F4AEB2B3FC285303FF704353F4A
:101DE0004068393FF7AE3D3F73D8413FFCE3453F84
:101DF0000BD1493F0A9F4D3F404D513F38DB543F87
:101E00005A48583F21945B3F06BE5E3F93C5613FF1
:101E100054AA643FD36B673FAB096A3F66836C3F4C
:101E2000A1D86E3F0709713F4414733F05FA743F10
:101E300006BA763FF453783F9BC7793FBA147B3F8D
:101E40002E3B7C3FB43A7D3F2B137E3F72C47E3FD6
:101E5000664E7F3F07B17F3F46EC7F3F0000803FEB
:101E600046EC7F3F07B17F3F664E7F3F72C47E3FA7
:101E70002B137E3FB43A7D3F2E3B7C3FBA147B3F11
:101E80009BC7793FF453783F06BA763F05FA743F13
:101E90004414733F0709713FA1D86E3F66836C3FBE
:101EA000AB096A3FD36B673F54AA643F93C5613F58
:101EB00006BE5E3F21945B3F5A48583F38DB543F93
:101EC000404D513F0A9F4D3F0BD1493FFCE3453FF9
:101ED00073D8413FF7AE3D3F4068393FF704353F87
:101EE000C285303F4AEB2B3F5936273F9467223F4C
:101EF000D87F1D3FBB7F183F2768133FD6390E3F61
:101F0000A1F5083F419C033F205DFC3EF35AF13EA2
:101F10006A33E63E7DE8DA3EC07BCF3E07EFC33E44
:101F20002844B83ED97CAC3EED9AA03E3CA0943EFD
:101F30009B8E883EC0CF783E035C603EACC5473E7A
:101F4000AA102F3E6440163E9EB2FA3D23BDC83D06
:101F50003FA9963D87FB483D350AC93C000000007B
:101F6000350AC9BC87FB48BD3FA996BD23BDC8BD86
:101F70009EB2FABD644016BEAA102FBEACC547BEC5
:101F8000035C60BEC0CF78BE9B8E88BE3CA094BE72
:101F9000ED9AA0BED97CACBE2844B8BE07EFC3BE44
:101FA000C07BCFBE7DE8DABE6A33E6BEF35AF1BE2F
:101FB000205DFCBE419C03BFA1F508BFD6390EBF12
:101FC000276813BFBB7F18BFD87F1DBF946722BF90
:101FD000593627BF4AEB2BBFC28530BFF70435BF48
:101FE000406839BFF7AE3DBF73D841BFFCE345BF82
:101FF0000BD149BF0A9F4DBF404D51BF38DB54BF85
:102000005A4858BF21945BBF06BE5EBF93C561BFEF
:1020100054AA64BFD36B67BFAB096ABF66836CBF4A
:10202000A1D86EBF070971BF441473BF05FA74BF0E
:1020300006BA76BFF45378BF9BC779BFBA147BBF8B
:102040002E3B7CBFB43A7DBF2B137EBF72C47EBFD4
:10205000664E7FBF07B17FBF46EC7FBF000080BFE9
:1020600046EC7FBF07B17FBF664E7FBF72C47EBFA5
:102070002B137EBFB43A7DBF2E3B7CBFBA147BBF0F
:102080009BC779BFF45378BF06BA76BF05FA74BF11
:10209000441473BF070971BFA1D86EBF66836CBFBC
:1020A000AB096ABFD36B67BF54AA64BF93C561BF56
:1020B00006BE5EBF21945BBF5A4858BF38DB54BF91
:1020C000404D51BF0A9F4DBF0BD149BFFCE345BFF7
:1020D00073D841BFF7AE3DBF406839BFF70435BF85
:1020E000C28530BF4AEB2BBF593627BF946722BF4A
:1020F000D87F1DBFBB7F18BF276813BFD6390EBF5F
:10210000A1F508BF419C03BF205DFCBEF35AF1BEA0
:102110006A33E6BE7DE8DABEC07BCFBE07EFC3BE42
:102120002844B8BED97CACBEED9AA0BE3CA094BEFB
:102130009B8E88BEC0CF78BE035C60BEACC547BE78
:10214000AA102FBE644016BE9EB2FABD23BDC8BD04
:102150003FA996BD87FB48BD350AC9BC00000000F9
:1021600074696D652C696E7075742C706C6C5F6F22
:1021700075747075742C74686574612C6672657101
:1021800075656E63792C70686173655F6572726FD7
:10219000722C6C6F6F705F66696C7465722C6C6FFB
:1021A000636B5F73746174650D0A0000CC210008D5
:1021B00000000020200000009A1B0008EC2100080D
:1021C0002000002038050000AA1B000801000000C4
:1021D00010000000000000000024F40000000000D7
:0C21E00000000000000000002A000000C9
:04000005080000ED02
:00000001FF
